:100000000C942A000C9447000C9447000C94470071
:100010000C9447000C9447000C9447000C94470044
:100020000C9447000C9447000C9447000C94470034
:100030000C9447000C9447000C9447000C94470024
:100040000C9447000C9447000C9447000C94470014
:100050000C94470011241FBECFE5D4E0DEBFCDBF16
:1000600010E0A0E6B0E0E2E5F3E002C005900D92FA
:10007000A636B107D9F710E0A6E6B0E001C01D92A0
:10008000A636B107E1F70E9475010C94A7010C9404
:100090000000282F207F28BBC298C39A20ED37E0AC
:1000A000F9013197F1F7C398F9013197F1F790E031
:1000B00044E0880F991F4A95E1F788BBC298C39A1C
:1000C000C9010197F1F7C398C9010197F1F70895A4
:1000D00082E090E00E94490088E290E00E9449009E
:1000E00086E090E00E9449008CE090E00E94490088
:1000F0000895282F207F28BBC29AC39A20ED37E0AD
:10010000F9013197F1F7C398F9013197F1F790E0D0
:1001100054E0880F991F5A95E1F788BBC29AC39A99
:10012000C9010197F1F7C398C9010197F1F7089543
:1001300081E00E94490080ED97E00197F1F7089572
:100140001F93CF93DF93EC0110E003C00E9479006E
:100150001F5FFE01E10FF11D80818823B9F7DF9158
:10016000CF911F910895CF93DF93EC0184E00E941B
:100170004900209791F480E30E9479000EC0CE01DF
:100180006AE070E00E949301805D0E947900CE01D8
:100190006AE070E00E949301EB01209781F786E00E
:1001A0000E944900DF91CF9108957EE020E137E27F
:1001B0006DE05BE047E072BBC9010197F1F7C899B8
:1001C00002C087E30895C9990FC0C99BFECF80EA9A
:1001D00085BB88EE93E028EC30E0F9013197F1F728
:1001E0000197D9F784E30895CA9904C0CA9BFECF4A
:1001F00081E30895CB9903C0CB9BFECF74C062BB53
:10020000C9010197F1F7C8990FC0C89BFECF80E5DF
:1002100085BB88EE93E028EC30E0F9013197F1F7E7
:100220000197D9F788E30895C99904C0C99BFECF07
:1002300085E30895CA990FC0CA9BFECF80E185BBB4
:1002400088EE93E028EC30E0F9013197F1F701975F
:10025000D9F782E30895CB9904C0CB9BFECF80E30E
:10026000089552BBC9010197F1F7C89904C0C89B12
:10027000FECF89E30895C9990FC0C99BFECF80E4E2
:1002800085BB88EE93E028EC30E0F9013197F1F777
:100290000197D9F786E30895CA9903C0CA9BFECF98
:1002A00022C0CB9904C0CB9BFECF8DE3089542BB07
:1002B000C9010197F1F7C89904C0C89BFECF8FE22E
:1002C0000895C99904C0C99BFECF88E70895CA99CB
:1002D00004C0CA9BFECF8DE20895CB996CCFCB9B17
:1002E000FECF8BE2089583E30895CF93DF931ABA8C
:1002F0008FEF81BB84BB8BBB87BB0E94680080E80B
:100300000E94490080E690E00E94A00080EC0E94DC
:100310004900C0E2DEE40E94D5000E947900CE01CF
:100320000197F1F7F8CFAA1BBB1B51E107C0AA1F29
:10033000BB1FA617B70710F0A61BB70B881F991F86
:100340005A95A9F780959095BC01CD010895F89430
:02035000FFCFDD
:060352006461746100000B
:00000001FF
